:020000040800F2
:10000000C0090020454700088D0500088F0500083D
:1000100093050008970500089B05000800000000F4
:100020000000000000000000000000009F05000824
:10003000A105000800000000A3050008A5050008B0
:100040005F4700085F4700085F4700085F470008F8
:100050005F4700085F4700085F4700085F470008E8
:100060005F4700085F4700085F4700085F470008D8
:100070005F4700085F4700085F4700085F470008C8
:100080005F4700085F4700085F4700085F470008B8
:10009000390900085F4700085F4700085F4700080C
:1000A0005F4700085F4700085F4700085F47000898
:1000B0005F4700085F4700085F4700085F47000888
:1000C0005F4700085F4700085F4700085F47000878
:1000D0005F470008CB4600085F4700085F470008FD
:1000E0005F4700085F4700085F4700085F47000858
:1000F0005F4700085F4700085F4700085F47000848
:100100005F4700085F4700085F4700085F47000837
:100110005F4700085F4700085F4700085F47000827
:100120005F4700085F4700085F4700085F47000817
:100130005F4700085F4700085F4700085F47000807
:100140005F470008E90A00085F4700085F470008AA
:100150005F4700085F4700085F4700085F470008E7
:100160005F4700085F4700085F4700085F470008D7
:100170005F4700085F4700085F4700085F470008C7
:100180005F4700085F4700085F4700085F470008B7
:100190005F4700085F4700085F4700085F470008A7
:1001A0005F4700085F4700085F47000800F002F85B
:1001B00000F041F80AA090E8000C82448344AAF1C0
:1001C0000107DA4501D100F036F8AFF2090EBAE8BE
:1001D0000F0013F0010F18BFFB1A43F0010318477B
:1001E000EC6000000C610000103A24BF78C878C1B0
:1001F000FAD8520724BF30C830C144BF04680C602D
:10020000704700000023002400250026103A28BF74
:1002100078C1FBD8520728BF30C148BF0B60704778
:10022000642905F0FD86002070471FB506F018F818
:100230001FBD10B510BD05F0E1FF1146FFF7F5FF3A
:1002400000F06EF805F0FFFF03B4FFF7F2FF03BC08
:1002500004F0D8F910B53EA005F0A2FE45A005F0C7
:100260009FFE4DA005F09CFE54A005F099FE5DA0F8
:1002700005F096FE64A005F093FE6BA005F090FEDD
:1002800071A005F08DFE77A005F08AFE10BD10B5B7
:100290000446072C3FD2DFE804F03E040D1A232C5D
:1002A000350077A005F07CFE00F088FC79A005F011
:1002B00077FE33E07BA005F073FE00F094FC4FF472
:1002C000FA7004F07FF97BA005F06AFE26E07EA0BC
:1002D00005F066FE00F0AAFC81A005F061FE1DE0BD
:1002E00085A005F05DFE00F0FEFC8AA005F058FE3A
:1002F00014E08EA005F054FE00F040FD92A005F041
:100300004FFE0BE096A005F04BFE02F01CF899A002
:1003100005F046FE02E0FFF79DFF00BF00BF10BDE5
:1003200000F080FA4FF4FA7004F04CF9FFF792FFF6
:100330000DE09548007838B193480078FFF7A7FFA3
:1003400000209149087002E00A2004F03BF9F0E730
:100350000D0ABBB6D3ADCAB9D3C320494E4E464FE2
:10036000532053434120C7FDB6AFB2E2CAD4A3A184
:100370000D0A0000CFEACFB8CDA8D0C5D0ADD2E9E4
:10038000B2CEBCFB20494E4E464F532057494B49F5
:1003900020A3A10D0A000000B7A2CBCD203120C2BE
:1003A000D6D1AFD7DCCFDFC9CFB5C4D6B4D0D0C695
:1003B000F7494420A3A10D0A00000000B7A2CBCD4D
:1003C000203220CAB9D3C3C4ACC8CF4944B3F5CA9C
:1003D000BCBBAF534341BFD8D6C6C6F720A3A10DBF
:1003E0000A000000B7A2CBCD203320BDF8C8EBCE69
:1003F000BBD6C3B9E9C1E3B2E2CAD4B3CCD0F220D0
:10040000A3A10D0A00000000B7A2CBCD203420BD6F
:10041000F8C8EBD5FDB7B4D7AAB2E2CAD4B3CCD0F2
:10042000F220A3A10D0A0000B7A2CBCD203520BD3C
:10043000F8C8EBB8DFB5CDCBD9B2E2CAD4B3CCD0D3
:10044000F220A3A10D0A0000B7A2CBCD203620BD1B
:10045000ABD6B4D0D0C6F7B9D8BBFA20A3A10D0A49
:1004600000000000B7A2CBCD203720CFD4CABEB049
:10047000EFD6FAD0C5CFA220A3A10D0A000000003C
:100480000D0AD6B4D0D0C2D6D1AFB3CCD0F2A3A18E
:100490000D0A0000C2D6D1AFBDE1CAF8A3A10D0A72
:1004A000000000000D0A534341B3F5CABCBBAFA323
:1004B000A10D0A00534341B3F5CABCBBAFBDE1CAAD
:1004C000F8A3A10D0A0000000D0ABDF8C8EBCEBBD1
:1004D000D6C3B9E9C1E3B2E2CAD4A3A10D0A0000B0
:1004E000CEBBD6C3B9E9C1E3B2E2CAD4BDE1CAF812
:1004F000A3A10D0A000000000D0ABDF8C8EBD5FD50
:10050000B7B4D7AAC7D0BBBBB2E2CAD4A3A10D0A65
:1005100000000000D5FDB7B4D7AAC7D0BBBBB2E27C
:10052000CAD4BDE1CAF8A3A10D0A00000D0ABDF8A6
:10053000C8EBB8DFB5CDCBD9C7D0BBBBB2E2CAD40C
:10054000A3A10D0A00000000B8DFB5CDCBD9C7D0FC
:10055000BBBBB2E2CAD4BDE1CAF8A3A10D0A000038
:100560000D0AD6B4D0D0C6F7B9D8BBFAA3A10D0AEC
:1005700000000000D6B4D0D0C6F7B9D8BBFABDE1B0
:10058000CAF8A3A10D0A000000000020704700BFB8
:10059000FEE700BFFEE700BFFEE700BFFEE77047D3
:1005A00070477047704700000CB500200190009024
:1005B0008348006840F480308149086000BF80486B
:1005C000006800F4003000900198401C01900098F1
:1005D00018B90198B0F5A04FF1D17948006800F43E
:1005E000003010B10120009001E000200090009840
:1005F000012860D172484030006840F08050704956
:10060000403108606F48006840F440406D49086020
:100610006B48083000686A4908310860084600687D
:1006200040F4004008600846006840F4A0500860AC
:100630006548091F0860081F006840F08070091FA6
:10064000086000BF5E48006800F000700028F9D024
:100650005C48006840F480305A49086000BF59483F
:10066000406800F480300028F9D05648006840F413
:1006700000305449086000BF5248406800F4003020
:100680000028F9D040F20570504908604C48083005
:10069000006820F003004A490831086008460068F5
:1006A00040F00200086000BF45480830006800F0D4
:1006B0000C000828F8D10CBD10B54548006840F47E
:1006C0007000434908603E48006840F001003C4922
:1006D000086000203A4908310860394800683D49FF
:1006E0000840374908603C48091D0860081F006839
:1006F00020F48020091F0860002031490C31086077
:10070000FFF752FF4FF0006031498039086010BD9B
:1007100070B500200022022300240221284D083554
:100720002D6805F00C0020B1042806D0082834D12B
:1007300007E02A4D2A4E356033E02A4D284E3560B9
:100740002FE01F4D2D1D2D68C5F380541C4D2D1D10
:100750002D6805F03F0154B1224DB5FBF1F5184E5F
:10076000361D3668C6F3881605FB06F209E01B4DF8
:10077000B5FBF1F5124E361D3668C6F3881605FB3B
:1007800006F20F4D2D1D2D68C5F301456D1C6B0044
:10079000B2FBF3F5124E356003E0104D104E35609C
:1007A00000BF00BF064D08352D68C5F303150E4E7A
:1007B000705D0B4D2D68C540094E356070BD000061
:1007C0000038024000700040085A4007003C0240D8
:1007D00088ED00E0FFFFF6FE103000240024F40056
:1007E0000400002000127A00080000201CB501213E
:1007F000082004F05EFB0C20009001208DF804001E
:1008000000208DF8060003208DF8050001208DF8EA
:10081000070069460D4804F0ABF80C210B4804F0C2
:1008200025F91CBD10B54FF4A06003F0ABFFFFF736
:10083000DDFFB42003F064FE4FF4E13003F0EFFE7F
:1008400000F006F800F0D9F810BD0000000C0240DE
:1008500000B58BB00121480604F072FB0121084667
:1008600004F027FB4FF4C050099002208DF82800B7
:1008700000208DF82A0001208DF82B0003208DF830
:10088000290009A9C94804F073F809220B21C748B7
:1008900004F0F9F809220C21C44804F0F4F800200F
:1008A0008DF81E008DF81F008DF8200001208DF8B6
:1008B000210000208DF822008DF823008DF81A0009
:1008C0008DF81B0001208DF81C008DF81D000920FB
:1008D000ADF8180006A9B64804F081FE00208DF896
:1008E00012008DF8130001208DF814000020ADF8DF
:1008F0000800ADF80A00ADF80C00ADF80E00ADF838
:10090000100001208DF8150002A804F0F2FE14205A
:100910008DF8040000208DF805008DF806000120F8
:100920008DF8070001A803F032FF01220221A04840
:1009300005F0DEF90BB000BD00B585B06A460021B8
:100940009B4805F0BAF8684603F0EBFC05B000BD23
:100950002DE9F04186B006468846174600240196E8
:10096000029600208DF80C008DF80D008DF80E70A9
:1009700000BF06E018F804100DF10F000155601CCF
:1009800084B2BC42F6DB40F6FF7400BF01A9884880
:1009900004F09EFF0546042D04D1201EA4F10101A0
:1009A0008CB2F3D1042D03D1022006B0BDE8F08152
:1009B000002401E0601C84B229467D4805F020F83F
:1009C00018B940F6FF708442F4DB40F6FF708442B1
:1009D00001DB0120E9E70020E7E710B5044600212C
:1009E000734805F0EDF808B9002010BD224600213B
:1009F0006F4805F062F8A07AF7E700B58BB00121E7
:100A0000880604F09DFA0121022004F052FA6020C9
:100A1000099002208DF8280000208DF82A0001207E
:100A20008DF82B0003208DF8290009A9614803F0F7
:100A30009FFF092205215F4804F025F809220621BD
:100A40005C4804F020F800208DF81E008DF81F008F
:100A50008DF8200001208DF8210000208DF8220063
:100A60008DF823008DF81A008DF81B0001208DF8F9
:100A70001C008DF81D000920ADF8180006A94E488D
:100A800004F0ADFD0E2004F0C5FE0E208DF812001E
:100A900000208DF8130001208DF814000020ADF81F
:100AA0000800ADF80A00ADF80C00ADF80E0001200A
:100AB000ADF810008DF8150002A804F01AFE4120D0
:100AC0008DF8040000208DF805008DF80600012047
:100AD0008DF8070001A803F05AFE012210213648C4
:100AE00005F006F90BB000BD00B585B06A460121DE
:100AF000314804F0E2FF684603F013FC05B000BD86
:100B00002DE9F04186B00646884617460024019636
:100B1000029600208DF80C008DF80D008DF80E70F7
:100B200000BF06E018F804100DF10F000155601C1D
:100B300084B2BC42F6DB40F6FF7400BF01A91E4838
:100B400004F0C6FE0546042D04D1201EA4F10101C7
:100B50008CB2F3D1042D03D1022006B0BDE8F081A0
:100B6000002401E0601C84B22946134804F048FFC9
:100B700018B940F6FF708442F4DB40F6FF708442FF
:100B800001DB0120E9E70020E7E710B50446012179
:100B9000094805F015F808B9002010BD22460121CA
:100BA000054804F08AFFA07AF7E700000000024041
:100BB00000640040000402400068004010B50120BD
:100BC0009D490870022048709C48486002209C495A
:100BD000087048709B484860974800F08BF9984827
:100BE00000F088F910BD10B501209349087002206B
:100BF00048709248486002209149087048709148B6
:100C000048608D49012000F096F98D49022000F0DE
:100C100092F9012000F026F98B490860022000F0CB
:100C200021F98A49086001F04EFB10BD10B5012082
:100C300000F0E5F900B910BD022000F0E0F900B9BC
:100C4000F9E701220621104601F08EFB0122062160
:100C5000022001F089FB9FED7E0A012001F01EFCBD
:100C600000BF0021012001F03FFC642003F0AAFC3A
:100C70007548006890ED480ADFED760AB4EEE00AA8
:100C8000F1EE10FAEDDC7048006890ED480ADFEDF7
:100C9000720AB4EEE00AF1EE10FAE2D39FED6C0AAC
:100CA000022001F0FBFB00BF0021022001F01CFC30
:100CB000642003F087FC6548006890ED480ADFED8A
:100CC000650AB4EEE00AF1EE10FAEDDC5F48006868
:100CD00090ED480ADFED600AB4EEE00AF1EE10FA9A
:100CE000E2D300BFA7E710B5012000F088F900B9F2
:100CF00010BD022000F083F900B9F9E7FFF796FF75
:100D0000B0EE000A012001F0C9FBB0EE000A4F4826
:100D1000006801F0DAFB4FF47A7003F053FC9FEDAA
:100D20004C0A012001F0BAFB9FED490A47480068D0
:100D300001F0CBFB4FF47A7003F044FCB0EE000AF4
:100D4000012001F0ABFBB0EE000A4048006801F062
:100D5000BCFB4FF47A7003F035FC9FED3D0A012097
:100D600001F09CFB9FED3A0A3848006801F0ADFBAA
:100D70004FF47A7003F026FC00BFB9E710B50120EC
:100D800000F03DF900B910BD022000F038F900B9BB
:100D9000F9E701220721104601F0E6FA01220721B6
:100DA000022001F0E1FA9FED2D0A012001F0B7FFCA
:100DB0009FED2A0A2548006801F0C8FF4FF47A70B9
:100DC00003F000FC9FED260A012001F0A8FF9FED33
:100DD000240A1E48006801F0B9FF4FF47A7003F04E
:100DE000F1FB9FED1E0A012001F099FF9FED1B0A08
:100DF0001648006801F0AAFF4FF47A7003F0E2FB96
:100E00009FED170A012001F08AFF9FED150A0F4898
:100E1000006801F09BFF4FF47A7003F0D3FB9FED65
:100E20000C0A012001F07BFF9FED090A07480068CA
:100E300001F08CFF00BFA6E7200000205109000848
:100E400028000020010B0008180000201C000020D2
:100E500000000000CDCCCC3DCDCCCCBD00009643F5
:100E6000000016440246002111E001EB011000EBE6
:100E70004110FA4B13F83000904206D101EB0110FB
:100E800000EB411003EBC0007047481CC1B20229BF
:100E9000EBDB0020F8E72DE9F04180460E46002705
:100EA0004046FFF7DFFF044614B90420BDE8F08197
:100EB0000020A0710021204602F0A0FD05460DB1E2
:100EC0002846F3E726B9C82003F034FB2846EDE7AF
:100ED00000BFA079012805D038467F1C4FF6FF716E
:100EE0008842F6D34FF6FF70874201D30320DDE737
:100EF0002846DBE770B505460026D8488560012402
:100F000010E0D6490C70E0B20121FFF7C4FF38B9F8
:100F1000701CC6B22B7822463D21D1A005F040F8C6
:100F2000601C84B2FF2CECDD2A7833464221DC4879
:100F300005F036F870BDDB4A1268022A00D370470C
:100F4000D84A126802EB021303EB4212C34B03F8B8
:100F50003200D44A126802EB021303EB4212BF4B79
:100F600003EBC2029160CF4A1268521CCD4B1A604B
:100F700000BFE4E72DE9F041064600276EBB0024E0
:100F800028E004EB041000EB4410B44911F8308061
:100F900004EB041000EB441001EBC000876804EB85
:100FA000041101EB4411AD4A02EBC1004FF4C471CE
:100FB00005F072F804EB041000EB4410A74901F8A7
:100FC000308004EB041000EB441001EBC00087609C
:100FD000601CC4B2022CD4DB0FE03046FFF742FFA6
:100FE00005460DB9BDE8F081AF684FF4C4712846DD
:100FF00005F052F82E70AF6000BF00BFF2E730B5C9
:10100000054600242846FFF72DFF04460CB90420AE
:1010100030BD94F8DA00FBE770B506460024304690
:10102000FFF720FF04460CB9042070BDE5790020CD
:10103000E0712846F9E72DE9F04180460E46002789
:1010400000244046FFF70EFF044614B90420BDE813
:10105000F081002184F83C106421204602F0CEFC8F
:1010600005460DB12846F2E726B9C82003F062FA1A
:101070002846ECE700BF94F83C00012805D038462C
:101080007F1C4FF6FF718842F5D34FF6FF70874201
:1010900001D30320DBE72846D9E72DE9F04180465C
:1010A0000E46002700244046FFF7DCFE044614B934
:1010B0000420BDE8F081002184F83B106221204625
:1010C00002F09CFC05460DB12846F2E726B9C8207F
:1010D00003F030FA2846ECE700BF94F83B00012803
:1010E00005D038467F1C4FF6FF718842F5D34FF686
:1010F000FF70874201D30320DBE72846D9E72DE9BB
:10110000F04180460E46002700244046FFF7AAFE25
:10111000044614B90420BDE8F081002184F83E1093
:101120006E21204602F06AFC05460DB12846F2E722
:1011300026B9C82003F0FEF92846ECE700BF94F872
:101140003E00012805D038467F1C4FF6FF718842CB
:10115000F5D34FF6FF70874201D30320DBE7284623
:10116000D9E72DE9F04180460E460027002440468D
:10117000FFF778FE044614B90420BDE8F081002191
:1011800084F83B106C21204602F038FC05460DB176
:101190002846F2E726B9C82003F0CCF92846ECE748
:1011A00000BF94F83B00012805D038467F1C4FF65D
:1011B000FF718842F5D34FF6FF70874201D30320B9
:1011C000DBE72846D9E72DE9F04180460E460027A7
:1011D00000244046FFF746FE044614B90420BDE84B
:1011E000F081002184F842106021204602F006FCC4
:1011F00005460DB12846F2E726B9C82003F09AF952
:101200002846ECE700BF94F84200012805D0384694
:101210007F1C4FF6FF718842F5D34FF6FF7087426F
:1012200001D30320DBE72846D9E72DE9F0418046CA
:101230000E46002700244046FFF714FE044614B96A
:101240000420BDE8F081002184F841105F21204690
:1012500002F0D4FB05463DB32846F2E74C000020DF
:1012600046494C453A202E2E5C5343415C53434142
:101270005F4150492E632C204C494E453A2025644D
:101280003A20466F756E6420494420256420696EBB
:101290002063616E506F72742025640D0A00000097
:1012A0006C62000830000020FFE726B9C82003F078
:1012B00041F92846C5E700BF94F84100012805D050
:1012C00038467F1C4FF6FF718842F5D34FF6FF700A
:1012D000874201D30320B4E72846B2E72DE9F04165
:1012E00080460E46002700244046FFF7BBFD04461B
:1012F00014B90420BDE8F081002184F8CF107F21CB
:10130000204602F07BFB05460DB12846F2E726B9E0
:10131000C82003F00FF92846ECE700BF94F8CF008F
:10132000012805D038467F1C4FF6FF718842F5D35F
:101330004FF6FF70874201D30320DBE72846D9E749
:101340002DE9F04180460E46002700244046FFF775
:1013500089FD044614B90420BDE8F081002184F819
:101360003F104521204602F049FB05460DB12846B5
:10137000F2E726B9C82003F0DDF82846ECE700BF05
:1013800094F83F00012805D038467F1C4FF6FF71C6
:101390008842F5D34FF6FF70874201D30320DBE785
:1013A0002846D9E72DE9F04180460E460027002463
:1013B0004046FFF757FD044614B90420BDE8F0810C
:1013C000002184F8C9105921204602F017FB054678
:1013D0000DB12846F2E726B9C82003F0ABF828463D
:1013E000ECE700BF94F8C900012805D038467F1CFF
:1013F0004FF6FF718842F5D34FF6FF70874201D355
:101400000320DBE72846D9E72DE9F04180460E4668
:10141000002700244046FFF725FD044614B90420A8
:10142000BDE8F081002184F838107321204602F0D5
:10143000E5FA05460DB12846F2E726B9C82003F0C3
:1014400079F82846ECE700BF94F83800012805D069
:1014500038467F1C4FF6FF718842F5D34FF6FF7078
:10146000874201D30320DBE72846D9E72DE9F04185
:1014700080460E46002700244046FFF7F3FC044652
:1014800014B90420BDE8F081002161757121204666
:1014900002F0B4FA05460DB12846F3E726B9C82094
:1014A00003F048F82846EDE700BF607D012805D02D
:1014B00038467F1C4FF6FF718842F6D34FF6FF7017
:1014C000874201D30320DDE72846DBE72DE9F04121
:1014D00080460E46002700244046FFF7C3FC044622
:1014E00014B90420BDE8F081002184F8B810162159
:1014F000204602F083FA05460DB12846F2E726B9E8
:10150000C82003F017F82846ECE700BF94F8B800AD
:10151000012805D038467F1C4FF6FF718842F5D36D
:101520004FF6FF70874201D30320DBE72846D9E757
:101530002DE9F04180460E4600270024002184F862
:10154000B7104046FFF78EFC044614B90420BDE8EE
:10155000F0811521204602F051FA05460DB12846CA
:10156000F5E726B9C82002F0E5FF2846EFE700BFFF
:1015700094F8B700012805D038467F1C4FF6FF715C
:101580008842F5D34FF6FF70874201D30320DEE790
:101590002846DCE72DE9F04180460E46002700246E
:1015A0004046FFF75FFC044614B90420BDE8F08113
:1015B000002184F8C0102221204602F01FFA0546BF
:1015C0000DB12846F2E726B9C82002F0B3FF28463D
:1015D000ECE700BF94F8C000012805D038467F1C16
:1015E0004FF6FF718842F5D34FF6FF70874201D363
:1015F0000320DBE72846D9E72DE9F04180460E4677
:10160000002700244046FFF72DFC044614B90420AF
:10161000BDE8F081002184F8C2102421204602F0A8
:10162000EDF905460DB12846F2E726B9C82002F0CB
:1016300081FF2846ECE700BF94F8C200012805D0DE
:1016400038467F1C4FF6FF718842F5D34FF6FF7086
:10165000874201D30320DBE72846D9E72DE9F04193
:1016600080460E46002700244046FFF7FBFB044659
:1016700014B90420BDE8F081002184F8C1102321B1
:10168000204602F0BBF905460DB12846F2E726B91F
:10169000C82002F04FFF2846ECE700BF94F8C100D5
:1016A000012805D038467F1C4FF6FF718842F5D3DC
:1016B0004FF6FF70874201D30320DBE72846D9E7C6
:1016C0002DE9F04180460E46002700244046FFF7F2
:1016D000C9FB044614B90420BDE8F081002184F858
:1016E000CA105B21204602F089F905460DB1284653
:1016F000F2E726B9C82002F01DFF2846ECE700BF3C
:1017000094F8CA00012805D038467F1C4FF6FF71B7
:101710008842F5D34FF6FF70874201D30320DBE701
:101720002846D9E72DE9F04180460E4600270024DF
:101730004046FFF797FB044614B90420BDE8F0814A
:10174000002184F839107721204602F057F9054628
:101750000DB12846F2E726B9C82002F0EBFE284674
:10176000ECE700BF94F83900012805D038467F1C0B
:101770004FF6FF718842F5D34FF6FF70874201D3D1
:101780000320DBE72846D9E72DE9F04180460E46E5
:10179000002700244046FFF765FB044614B90420E7
:1017A000BDE8F0810021A1757521204602F026F9DF
:1017B00005460DB12846F3E726B9C82002F0BAFE67
:1017C0002846EDE700BFA07D012805D038467F1CE4
:1017D0004FF6FF718842F6D34FF6FF70874201D370
:1017E0000320DDE72846DBE72DE9F04180460E4681
:1017F000002700244046FFF735FB044614B90420B7
:10180000BDE8F081002184F8C3103621204602F0A3
:10181000F5F805460DB12846F2E726B9C82002F0D2
:1018200089FE2846ECE700BF94F8C300012805D0E4
:1018300038467F1C4FF6FF718842F5D34FF6FF7094
:10184000874201D30320DBE72846D9E72DE9F041A1
:1018500080460E46002700244046FFF703FB04465F
:1018600014B90420BDE8F081002184F8C4103721A8
:10187000204602F0C3F805460DB12846F2E726B926
:10188000C82002F057FE2846ECE700BF94F8C400D9
:10189000012805D038467F1C4FF6FF718842F5D3EA
:1018A0004FF6FF70874201D30320DBE72846D9E7D4
:1018B0002DE9F04180460E46002700244046FFF700
:1018C000D1FA044614B90420BDE8F081002184F85F
:1018D000BA101821204602F091F805460DB12846AD
:1018E000F2E726B9C82002F025FE2846ECE700BF43
:1018F00094F8BA00012805D038467F1C4FF6FF71D6
:101900008842F5D34FF6FF70874201D30320DBE70F
:101910002846D9E72DE9F04180460E4600270024ED
:101920004046FFF79FFA044614B90420BDE8F08151
:10193000002184F8B9101721204602F05FF805460F
:101940000DB12846F2E726B9C82002F0F3FD28467B
:10195000ECE700BF94F8B900012805D038467F1C99
:101960004FF6FF718842F5D34FF6FF70874201D3DF
:101970000320DBE72846D9E72DE9F04180460E46F3
:10198000002700244046FFF76DFA044614B90420EE
:10199000BDE8F081002184F8BD101C21204602F032
:1019A0002DF805460DB12846F2E726B9C82002F009
:1019B000C1FD2846ECE700BF94F8BD00012805D022
:1019C00038467F1C4FF6FF718842F5D34FF6FF7003
:1019D000874201D30320DBE72846D9E72DE9F04110
:1019E00080460E46002700244046FFF73BFA044697
:1019F00014B90420BDE8F081002184F8BF101E2135
:101A0000204601F0FBFF05460DB12846F2E726B956
:101A1000C82002F08FFD2846ECE700BF94F8BF0015
:101A2000012805D038467F1C4FF6FF718842F5D358
:101A30004FF6FF70874201D30320DBE72846D9E742
:101A40002DE9F04180460E46002700244046FFF76E
:101A500009FA044614B90420BDE8F081002184F895
:101A6000BE101D21204601F0C9FF05460DB12846D4
:101A7000F2E726B9C82002F05DFD2846ECE700BF7A
:101A800094F8BE00012805D038467F1C4FF6FF7140
:101A90008842F5D34FF6FF70874201D30320DBE77E
:101AA0002846D9E72DE9F04180460E46002700245C
:101AB0004046FFF7D7F9044614B90420BDE8F08189
:101AC000002184F83A107B21204601F097FF05465B
:101AD0000DB12846F2E726B9C82002F02BFD2846B2
:101AE000ECE700BF94F83A00012805D038467F1C87
:101AF0004FF6FF718842F5D34FF6FF70874201D34E
:101B00000320DBE72846D9E72DE9F04180460E4661
:101B1000002700244046FFF7A5F9044614B9042025
:101B2000BDE8F0810021E1757921204601F066FFD2
:101B300005460DB12846F3E726B9C82002F0FAFCA5
:101B40002846EDE700BFE07D012805D038467F1C20
:101B50004FF6FF718842F6D34FF6FF70874201D3EC
:101B60000320DDE72846DBE72DE9F04180460E46FD
:101B7000002700244046FFF775F9044614B90420F5
:101B8000BDE8F081002121768B21204601F036FF4F
:101B900005460DB12846F3E726B9C82002F0CAFC75
:101BA0002846EDE700BF207E012805D038467F1C7F
:101BB0004FF6FF718842F6D34FF6FF70874201D38C
:101BC0000320DDE72846DBE72DE9F04180460E469D
:101BD000002700244046FFF745F9044614B90420C5
:101BE000BDE8F081002184F8C8108621204601F06C
:101BF00005FF05460DB12846F2E726B9C82002F0D8
:101C000099FC2846ECE700BF94F8C800012805D0ED
:101C100038467F1C4FF6FF718842F5D34FF6FF70B0
:101C2000874201D30320DBE72846D9E72DE9F041BD
:101C300080460E46002700244046FFF713F904466D
:101C400014B90420BDE8F081002184F8C710852173
:101C5000204601F0D3FE05460DB12846F2E726B92D
:101C6000C82002F067FC2846ECE700BF94F8C700E4
:101C7000012805D038467F1C4FF6FF718842F5D306
:101C80004FF6FF70874201D30320DBE72846D9E7F0
:101C90002DE9F04180460E46002700244046FFF71C
:101CA000E1F8044614B90420BDE8F081002184F86D
:101CB000CC108A21204601F0A1FE05460DB1284630
:101CC000F2E726B9C82002F035FC2846ECE700BF51
:101CD00094F8CC00012805D038467F1C4FF6FF71E0
:101CE0008842F5D34FF6FF70874201D30320DBE72C
:101CF0002846D9E72DE9F04180460E46002700240A
:101D00004046FFF7AFF8044614B90420BDE8F0815F
:101D1000002184F8C5103821204601F06FFE0546E9
:101D20000DB12846F2E726B9C82002F003FC284688
:101D3000ECE700BF94F8C500012805D038467F1CA9
:101D40004FF6FF718842F5D34FF6FF70874201D3FB
:101D50000320DBE72846D9E72DE9F04180460E460F
:101D6000002700244046FFF77DF8044614B90420FC
:101D7000BDE8F081002184F8C6103921204601F029
:101D80003DFE05460DB12846F2E726B9C82002F00F
:101D9000D1FB2846ECE700BF94F8C600012805D027
:101DA00038467F1C4FF6FF718842F5D34FF6FF701F
:101DB000874201D30320DBE72846D9E72DE9F0412C
:101DC00080460E46002700244046FFF74BF80446A5
:101DD00014B90420BDE8F081002184F8BC101A2158
:101DE000204601F00BFE05460DB12846F2E726B964
:101DF000C82002F09FFB2846ECE700BF94F8BC0027
:101E0000012805D038467F1C4FF6FF718842F5D374
:101E10004FF6FF70874201D30320DBE72846D9E75E
:101E20002DE9F04180460E46002700244046FFF78A
:101E300019F8044614B90420BDE8F081002184F8A3
:101E4000BB101921204601F0D9FD05460DB12846E9
:101E5000F2E726B9C82002F06DFB2846ECE700BF88
:101E600094F8BB00012805D038467F1C4FF6FF715F
:101E70008842F5D34FF6FF70874201D30320DBE79A
:101E80002846D9E72DE9F04180460E460027002478
:101E90004046FEF7E7FF044614B90420BDE8F08190
:101EA0000021E1745521204601F0A8FD05460DB141
:101EB0002846F3E726B9C82002F03CFB2846EDE7A8
:101EC00000BFE07C012805D038467F1C4FF6FF712B
:101ED0008842F6D34FF6FF70874201D30320DDE737
:101EE0002846DBE72DE9F04180460E460027002416
:101EF0004046FEF7B7FF044614B90420BDE8F08160
:101F0000002184F8D0109421204601F077FD054689
:101F10000DB12846F2E726B9C82002F00BFB28468F
:101F2000ECE700BF94F8D000012805D038467F1CAC
:101F30004FF6FF718842F5D34FF6FF70874201D309
:101F40000320DBE72846D9E72DE9F04180460E461D
:101F5000002700244046FEF785FF044614B90420FC
:101F6000BDE8F081002184F84310FF21204601F0F4
:101F700045FD05460DB12846F2E726B9C82002F016
:101F8000D9FA2846ECE700BF94F84300012805D0B1
:101F900038467F1C4FF6FF718842F5D34FF6FF702D
:101FA000874201D30320DBE72846D9E770B5044612
:101FB0000D4629462046FFF7C7FF29462046FFF772
:101FC00091FF29462046FFF75DFF29462046FFF78F
:101FD00027FF29462046FFF7F1FE29462046FFF756
:101FE000BBFE29462046FFF785FE29462046FFF71F
:101FF0004FFE29462046FFF719FE29462046FFF7E7
:10200000E3FD29462046FFF7AFFD29462046FFF7AE
:102010007BFD29462046FFF745FD29462046FFF770
:102020000FFD29462046FFF7D9FC29462046FFF739
:10203000A3FC29462046FFF76DFC29462046FFF702
:1020400037FC29462046FFF701FC29462046FFF7CA
:10205000CBFB29462046FFF797FB29462046FFF792
:1020600061FB29462046FFF72BFB29462046FFF758
:10207000F5FA29462046FFF7BFFA29462046FFF722
:1020800089FA29462046FFF753FA29462046FFF7EA
:102090001DFA29462046FFF7E9F929462046FFF7B1
:1020A000B3F929462046FFF77DF929462046FFF778
:1020B00047F929462046FFF711F929462046FFF740
:1020C000B4F829462046FFF77EF829462046FFF758
:1020D00048F829462046FFF712F829462046FEF721
:1020E000DCFF29462046FEF7A6FF70BD2DE9F04132
:1020F00080460E46002700244046FEF7B3FE044605
:1021000014B90420BDE8F081002184F84010532167
:10211000204601F073FC05460DB12846F2E726B9CA
:10212000C82002F007FA2846ECE700BF94F8400008
:10213000012805D038467F1C4FF6FF718842F5D341
:102140004FF6FF70874201D30320DBE72846D9E72B
:102150002DE9F04180460E46002700244046FEF758
:1021600081FE044614B90420BDE8F08100212175E8
:10217000B021204601F042FC05460DB12846F3E7A8
:1021800026B9C82002F0D6F92846EDE700BF207D29
:10219000012805D038467F1C4FF6FF718842F6D3E0
:1021A0004FF6FF70874201D30320DDE72846DBE7C7
:1021B0002DE9F04180460E46002700244046FEF7F8
:1021C00051FE044614B90420BDE8F081002184F8D2
:1021D000D1100221204601F011FC05460DB1284620
:1021E000F2E726B9C82002F0A5F92846ECE700BFBF
:1021F00094F8D100012805D038467F1C4FF6FF71B6
:102200008842F5D34FF6FF70874201D30320DBE706
:102210002846D9E72DE9F041074600260024384634
:10222000FEF720FE044614B90420BDE8F08194F8BE
:10223000DA00012801D10020F7E70121A174012271
:102240002A21204601F032FB05460DB12846ECE775
:1022500000BF94F8DA00012805D03046761C6FF0F4
:102260007F418842F5D36FF07F40864201D303203F
:10227000DBE70120A07101213846FFF799FF01211A
:102280003846FFF765FF94F8D50028B9227840F268
:102290002911ECA003F084FE01213846FFF726FF48
:1022A00094ED380AB5EEC00AF1EE10FA05D12278A5
:1022B0004FF49871F2A003F073FE00213846FFF747
:1022C00075FE2846B1E710B500240AE004EB0411BE
:1022D00001EB4411F94A12F83100FFF79BFF601C33
:1022E000C4B2022CF2DB10BD2DE9F04107460026F6
:1022F00000243846FEF7B6FD044614B90420BDE8B4
:10230000F08194F8DA0008B90020F8E70021A17400
:1023100000222A21204601F0C9FA05460DB12846BF
:10232000EDE700BF94F8DA0028B13046761C6FF074
:102330007F418842F6D36FF07F40864201D303206D
:10234000DDE72846DBE710B500240AE004EB0411C2
:1023500001EB4411D94A12F83100FFF7C5FF601CA8
:10236000C4B2022CF2DB10BD2DE9F04781460C46C9
:1023700017464FF0000800254846FEF773FD054656
:1023800015B90420BDE8F08795F8D400A04201D12A
:102390000020F7E76C7322460721284601F086FAF1
:1023A00006460EB13046EDE727B9C82002F0C2F864
:1023B0003046E7E700BF95F8D400A04206D040467B
:1023C00008F101084FF6FF718842F4D34FF6FF7011
:1023D000804501D30320D5E73046D3E72DE9F0410E
:1023E00007460D46002600243846FEF73BFD04460E
:1023F00014B90420BDE8F081B4F8080108B9002040
:10240000F8E7FE21204601F0D5FA804625B9C8201C
:1024100002F090F84046EDE700BFB4F8080128B19B
:102420003046761C4FF6FF718842F6D34FF6FF70A8
:10243000864201D30320DDE74046DBE72DE9F0418A
:1024400080460E46002700244046FEF70BFD04465A
:1024500014B90420BDE8F081002060710D212046F0
:1024600001F0A8FA05460DB12846F3E726B9C820C1
:1024700002F060F82846EDE700BF6079012805D03A
:1024800038467F1C4FF6FF718842F6D36FF07F40CD
:10249000874201D30320DDE72846DBE770B52DED49
:1024A000028B0546B0EE408A00242846FEF7DAFC8F
:1024B00004461CB90420BDEC028B70BDB0EE480A86
:1024C0000A21204601F022FAF5E710B52DED028B26
:1024D0000446B0EE408AB0EE480A0A21204601F0D8
:1024E00015FABDEC028B10BD2DE9F04180460E4679
:1024F000002700244046FEF7B5FC044614B904202A
:10250000BDE8F081002184F8B6100621204601F0D4
:1025100075FA05460DB12846F2E726B9C82002F043
:1025200009F82846ECE700BF94F8B600012805D06A
:1025300038467F1C4FF6FF718842F5D36FF07F401D
:10254000874201D30320DBE72846D9E72DE9F04194
:1025500004460D460027002184F8B61006212046C7
:1025600001F04CFA064616B13046BDE8F08125B9B7
:10257000C82001F0DFFF3046F7E700BF94F8B6004F
:10258000012805D038467F1C4FF6FF718842F5D3ED
:102590006FF07F40874201D30320E6E73046E4E74F
:1025A0002DE9F0412DED028B8046B0EE408A0E46BB
:1025B000002700244046FEF755FC044624B90420B9
:1025C000BDEC028BBDE8F08184ED188AB0EE480ABC
:1025D0001221204601F09AF905460DB12846EFE791
:1025E00026B9C82001F0A6FF2846E9E700BF94ED10
:1025F0004D0AB4EE480AF1EE10FA05D038467F1CB9
:102600004FF6FF718842F2D34FF6FF70874201D335
:102610000320D5E72846D3E72DE9F0412DED028BC5
:102620008046B0EE408A0E46002700244046FEF762
:1026300019FC044624B90420BDEC028BBDE8F081EE
:102640003EE0000046494C453A202E2E5C53434163
:102650005C5343415F4150492E632C204C494E4509
:102660003A2025643A2049443A2564204C61737429
:102670005F5374617465204572726F720D0A0000B9
:1026800046494C453A202E2E5C5343415C5343410E
:102690005F4150492E632C204C494E453A20256419
:1026A0003A2049443A25642043757272656E745F1E
:1026B0004D6178204572726F720D0A004C00002047
:1026C00084ED198AB0EE480A1321204601F01EF964
:1026D000054625B12846BDEC028BBDE8F08126B940
:1026E000C82001F027FF2846F5E700BF94ED4E0A09
:1026F000B4EE480AF1EE10FA05D038467F1C4FF6CA
:10270000FF718842F2D34FF6FF70874201D3032056
:10271000E1E72846DFE72DE9F0412DED028B804609
:10272000B0EE408A0E46002700244046FEF79AFB92
:10273000044624B90420BDEC028BBDE8F08184ED91
:10274000238AB0EE480A3321204601F0DFF805461F
:102750000DB12846EFE726B9C82001F0EBFE284668
:10276000E9E700BF94ED580AB4EE480AF1EE10FA1A
:1027700005D038467F1C4FF6FF718842F2D34FF6E2
:10278000FF70874201D30320D5E72846D3E72DE920
:10279000F0412DED028B8046B0EE408A0E460027B8
:1027A00000244046FEF75EFB044624B90420BDEC3D
:1027B000028BBDE8F08184ED228AB0EE480A322116
:1027C000204601F0A3F805460DB12846EFE726B9EB
:1027D000C82001F0AFFE2846E9E700BF94ED570A94
:1027E000B4EE480AF1EE10FA05D038467F1C4FF6D9
:1027F000FF718842F2D34FF6FF70874201D3032066
:10280000D5E72846D3E72DE9F0412DED028B804630
:10281000B0EE408A0E46002700244046FEF722FB19
:10282000044624B90420BDEC028BBDE8F08184EDA0
:10283000298AB0EE480A8921204601F067F805464A
:102840000DB12846EFE726B9C82001F073FE2846EF
:10285000E9E700BF94ED5E0AB4EE480AF1EE10FA23
:1028600005D038467F1C4FF6FF718842F2D34FF6F1
:10287000FF70874201D30320D5E72846D3E72DE92F
:10288000F0412DED028B8046B0EE408A0E460027C7
:1028900000244046FEF7E6FA044624B90420BDECC5
:1028A000028BBDE8F08184ED248AB0EE480A8321D2
:1028B000204601F02BF805460DB12846EFE726B972
:1028C000C82001F037FE2846E9E700BF94ED590A19
:1028D000B4EE480AF1EE10FA05D038467F1C4FF6E8
:1028E000FF718842F2D34FF6FF70874201D3032075
:1028F000D5E72846D3E72DE9F0412DED028B804640
:10290000B0EE408A0E46002700244046FEF7AAFAA1
:10291000044624B90420BDEC028BBDE8F08184EDAF
:10292000258AB0EE480A8421204600F0EFFF0546D4
:102930000DB12846EFE726B9C82001F0FBFD284677
:10294000E9E700BF94ED5A0AB4EE480AF1EE10FA36
:1029500005D038467F1C4FF6FF718842F2D34FF600
:10296000FF70874201D30320D5E72846D3E72DE93E
:10297000F04781460C4617464FF0000800254846B0
:10298000FEF770FA054615B90420BDE8F0876C74AF
:1029900022468C21284600F089FF06460EB13046BB
:1029A000F3E727B9C82001F0C5FD3046EDE700BFC9
:1029B00095F8D900A04206D0404608F101084FF62C
:1029C000FF718842F4D34FF6FF70804501D3032096
:1029D000DBE73046D9E72DE9F0412DED028B80464B
:1029E000B0EE408A0E46002700244046FEF73AFA31
:1029F000044624B90420BDEC028BBDE8F08184EDCF
:102A0000288AB0EE480A8721204600F07FFF05465D
:102A10000DB12846EFE726B9C82001F08BFD284606
:102A2000E9E700BF94ED5D0AB4EE480AF1EE10FA52
:102A300005D038467F1C4FF6FF718842F2D34FF61F
:102A4000FF70874201D30320D5E72846D3E72DE95D
:102A5000F04781460C4617464FF0000800254846CF
:102A6000FEF700FA054615B90420BDE8F0872C747E
:102A700022467821284600F019FF06460EB130465E
:102A8000F3E727B9C82001F055FD3046EDE700BF58
:102A900095F8D800A04206D0404608F101084FF64C
:102AA000FF718842F4D34FF6FF70804501D30320B5
:102AB000DBE73046D9E72DE9F0412DED028B80466A
:102AC000B0EE408A0E46002700244046FEF7CAF9C1
:102AD000044624B90420BDEC028BBDE8F08184EDEE
:102AE000098AB0EE480A7A21204600F0EDFE05463C
:102AF0000DB12846EFE726B9C82001F01BFD284696
:102B0000E9E700BF94ED3B0AB4EE480AF1EE10FA93
:102B100005D038467F1C4FF6FF718842F2D34FF63E
:102B2000FF70874201D30320D5E72846D3E72DE97C
:102B3000F04180460E46002700244046FEF792F9F9
:102B4000044614B90420BDE8F081002184F8D210B5
:102B50008821204600F02EFF05460DB12846F2E7F9
:102B600026B9C82001F0E6FC2846ECE700BF94F83F
:102B7000D200012805D038467F1C4FF6FF718842ED
:102B8000F5D34FF6FF70874201D30320DBE72846D9
:102B9000D9E72DE9F0412DED028B8046B0EE408A59
:102BA0000E46002700244046FEF75CF9044624B98F
:102BB0000420BDEC028BBDE8F08184ED1B8A9FED03
:102BC000FD0AC8EE000AB0EE608AB0EE480A202185
:102BD000204600F09BFE05460DB12846E9E726B9E0
:102BE000C82001F0A7FC2846E3E700BF94ED500A97
:102BF000B4EE480AF1EE10FA05D038467F1C4FF6C5
:102C0000FF718842F2D34FF6FF70874201D3032051
:102C1000CFE72846CDE72DE9F0412DED028B804628
:102C2000B0EE408A0E46002700244046FEF71AF90F
:102C3000044624B90420BDEC028BBDE8F08184ED8C
:102C40001C8A9FEDDC0AC8EE000AB0EE608AB0EE86
:102C5000480A2121204600F059FE05460DB12846BC
:102C6000E9E726B9C82001F065FC2846E3E700BF84
:102C700094ED510AB4EE480AF1EE10FA05D0384648
:102C80007F1C4FF6FF718842F2D34FF6FF708742E8
:102C900001D30320CFE72846CDE72DE9F0412DED04
:102CA000028B8046B0EE408A0E4600270024404644
:102CB000FEF7D8F8044624B90420BDEC028BBDE829
:102CC000F08184ED1A8A9FEDBB0AC8EE000AB0EECF
:102CD000608AB0EE480A1F21204600F017FE054624
:102CE0000DB12846E9E726B9C82001F023FC2846A3
:102CF000E3E700BF94ED4F0AB4EE480AF1EE10FA94
:102D000005D038467F1C4FF6FF718842F2D34FF64C
:102D1000FF70874201D30320CFE72846CDE770B587
:102D20002DED028B0546B0EE408A00242846FEF7C2
:102D300099F804461CB90420BDEC028B70BDB0EEBE
:102D4000480A0921204600F0E1FDF5E710B52DED18
:102D5000028B0446B0EE408AB0EE480A09212046B4
:102D600000F0D4FDBDEC028B10BD2DE9F041804692
:102D70000E46002700244046FEF774F8044614B9B6
:102D80000420BDE8F081002184F8B510052120461B
:102D900000F034FE05460DB12846F2E726B9C820FA
:102DA00001F0C8FB2846ECE700BF94F8B500012805
:102DB00005D038467F1C4FF6FF718842F5D34FF699
:102DC000FF70874201D30320DBE72846D9E72DE9CE
:102DD000F04104460D460027002184F8B510052176
:102DE000204600F00BFE064616B13046BDE8F081E5
:102DF00025B9C82001F09EFB3046F7E700BF94F8E4
:102E0000B500012805D038467F1C4FF6FF71884277
:102E1000F5D34FF6FF70874201D30320E6E7304633
:102E2000E4E72DE9F0412DED028B8046B0EE408ABB
:102E30000E46002700244046FEF714F8044624B945
:102E40000420BDEC028BBDE8F08184ED168AB0EE63
:102E5000480A1021204600F059FD05460DB12846CC
:102E6000EFE726B9C82001F065FB2846E9E700BF77
:102E700094ED4B0AB4EE480AF1EE10FA05D038464C
:102E80007F1C4FF6FF718842F2D34FF6FF708742E6
:102E900001D30320D5E72846D3E72DE9F0412DEDF6
:102EA000028B8046B0EE408A0E4600270024404642
:102EB000FDF7D8FF044624B90420BDEC028BBDE821
:102EC000F08184ED178AB0EE480A1121204600F007
:102ED0001DFD05460DB12846EFE726B9C82001F0D3
:102EE00029FB2846E9E700BF94ED4C0AB4EE480AF6
:102EF000F1EE10FA05D038467F1C4FF6FF7188427C
:102F0000F2D34FF6FF70874201D30320D5E728465E
:102F1000D3E72DE9F0412DED028B8046B0EE408ADB
:102F20000E46002700244046FDF79CFF044624B9C6
:102F30000420BDEC028BBDE8F08184ED218AB0EE67
:102F4000480A3121204600F0E1FC05460DB1284633
:102F5000EFE726B9C82001F0EDFA2846E9E700BFFF
:102F600094ED560AB4EE480AF1EE10FA05D0384650
:102F70007F1C4FF6FF718842F2D34FF6FF708742F5
:102F800001D30320D5E72846D3E72DE9F0412DED05
:102F9000028B8046B0EE408A0E4600270024404651
:102FA000FDF760FF04463CB90420BDEC028BBDE890
:102FB000F08100000000704484ED208AB0EE480AE1
:102FC0003021204600F0A2FC05460DB12846ECE772
:102FD00026B9C82001F0AEFA2846E6E700BF94ED16
:102FE000550AB4EE480AF1EE10FA05D038467F1CB7
:102FF0004FF6FF718842F2D34FF6FF70874201D33C
:103000000320D2E72846D0E79FEDFA0A70472DE962
:10301000F04781460C4617464FF000080025484609
:10302000FDF720FF054615B90420BDE8F087EC73D5
:1030300022467421284600F039FC06460EB130467F
:10304000F3E727B9C82001F075FA3046EDE700BF75
:1030500095F8D700A04206D0404608F101084FF687
:10306000FF718842F4D34FF6FF70804501D30320EF
:10307000DBE73046D9E72DE9F0412DED028B8046A4
:10308000B0EE408A0E46002700244046FDF7EAFED7
:10309000044624B90420BDEC028BBDE8F08184ED28
:1030A000088AB0EE480A7621204600F00DFC05465D
:1030B0000DB12846EFE726B9C82001F03BFA2846B3
:1030C000E9E700BF94ED3A0AB4EE480AF1EE10FACF
:1030D00005D038467F1C4FF6FF718842F2D34FF679
:1030E000FF70874201D30320D5E72846D3E72DE9B7
:1030F000F0412DED028B8046B0EE408A0E4600274F
:1031000000244046FDF7AEFE044624B90420BDEC81
:10311000028BBDE8F08184ED278AB0EE480A5A217F
:10312000204600F0F3FB05460DB12846EFE726B92F
:10313000C82001F0FFF92846E9E700BF94ED5C0ADA
:10314000B4EE480AF1EE10FA05D038467F1C4FF66F
:10315000FF718842F2D34FF6FF70874201D30320FC
:10316000D5E72846D3E72DE9F0412DED028B8046C7
:10317000B0EE408A0E46002700244046FDF772FE5E
:10318000044624B90420BDEC028BBDE8F08184ED37
:103190001E8A1FED780AC8EE000AB0EE608AB0EE13
:1031A000480A2621204600F0B1FB05460DB128460D
:1031B000E9E726B9C82001F0BDF92846E3E700BFDA
:1031C00094ED530AB4EE480AF1EE10FA05D03846F1
:1031D0007F1C4FF6FF718842F2D34FF6FF70874293
:1031E00001D30320CFE72846CDE72DE9F0412DEDAF
:1031F000028B8046B0EE408A0E46002700244046EF
:10320000FDF730FE044624B90420BDEC028BBDE876
:10321000F08184ED1F8A1FED990AC8EE000AB0EE16
:10322000608AB0EE480A2721204600F06FFB054671
:103230000DB12846E9E726B9C82001F07BF92846F8
:10324000E3E700BF94ED540AB4EE480AF1EE10FA39
:1032500005D038467F1C4FF6FF718842F2D34FF6F7
:10326000FF70874201D30320CFE72846CDE72DE941
:10327000F0412DED028B8046B0EE408A0E460027CD
:1032800000244046FDF7EEFD044624B90420BDECC1
:10329000028BBDE8F08184ED1D8A1FEDBA0AC8EEED
:1032A000000AB0EE608AB0EE480A2521204600F000
:1032B0002DFB05460DB12846E9E726B9C82001F0E7
:1032C00039F92846E3E700BF94ED520AB4EE480A04
:1032D000F1EE10FA05D038467F1C4FF6FF71884298
:1032E000F2D34FF6FF70874201D30320CFE7284681
:1032F000CDE770B52DED028B0546B0EE408A002477
:103300002846FDF7AFFD04461CB90420BDEC028B36
:1033100070BDB0EE480A0821204600F0F7FAF5E744
:1033200010B52DED028B0446B0EE408AB0EE480A8F
:103330000821204600F0EAFABDEC028B10BD2DE911
:10334000F04180460E46002700244046FDF78AFDE6
:10335000044614B90420BDE8F081002184F8B410BB
:103360000421204600F04AFB05460DB12846F2E74D
:1033700026B9C82001F0DEF82846ECE700BF94F833
:10338000B400012805D038467F1C4FF6FF718842F3
:10339000F5D34FF6FF70874201D30320DBE72846C1
:1033A000D9E72DE9F04104460D460027002184F8B5
:1033B000B4100421204600F021FB064616B1304629
:1033C000BDE8F08125B9C82001F0B4F83046F7E730
:1033D00000BF94F8B400012805D038467F1C4FF692
:1033E000FF718842F5D34FF6FF70874204D3032064
:1033F000E6E700000080BB453046E1E72DE9F047F5
:1034000081460C4617464FF0000800254846FDF758
:1034100029FD054615B90420BDE8F087AC732246A6
:103420007021284600F042FA06460EB13046F3E716
:1034300027B9C82001F07EF83046EDE700BF95F8C7
:10344000D600A04206D0404608F101084FF6FF71B1
:103450008842F4D34FF6FF70804501D30320DBE7A9
:103460003046D9E72DE9F0412DED028B8046B0EED4
:10347000408A0E46002700244046FDF7F3FC044630
:1034800024B90420BDEC028BBDE8F08184ED078AED
:10349000B0EE480A7221204600F016FA05460DB13A
:1034A0002846EFE726B9C82001F044F82846E9E7A6
:1034B00000BF94ED390AB4EE480AF1EE10FA05D0D7
:1034C00038467F1C4FF6FF718842F2D34FF6FF70EB
:1034D000874201D30320D5E72846D3E72DE9F04101
:1034E0002DED028B8046B0EE408A0E460027002468
:1034F0004046FDF7B7FC044624B90420BDEC028B1E
:10350000BDE8F08184ED268AB0EE480A58212046B5
:1035100000F0FCF905460DB12846EFE726B9C820B2
:1035200001F008F82846E9E700BF94ED5B0AB4EE25
:10353000480AF1EE10FA05D038467F1C4FF6FF71AD
:103540008842F2D34FF6FF70874201D30320D5E7BC
:103550002846D3E72DE9F0412DED028B8046B0EEF1
:10356000408A0E46002700244046FDF77BFC0446B7
:1035700024B90420BDEC028BBDE8F08184ED2C8AD7
:10358000B0EE480A7E21204600F0C0F905460DB194
:103590002846EFE726B9C82000F0CCFF2846E9E727
:1035A00000BF94ED610AB4EE480AF1EE10FA05D0BE
:1035B00038467F1C4FF6FF718842F2D34FF6FF70FA
:1035C000874201D30320D5E72846D3E72DE9F04110
:1035D0002DED028B8046B0EE408A0E460027002477
:1035E0004046FDF73FFC044624B90420BDEC028BA5
:1035F000BDE8F08184ED0C8AB0EE480A6B212046CC
:1036000000F062F905460DB12846EFE726B9C8205B
:1036100000F090FF2846E9E700BF94ED400AB4EEC1
:10362000480AF1EE10FA05D038467F1C4FF6FF71BC
:103630008842F2D34FF6FF70874201D30320D5E7CB
:103640002846D3E72DE9F0412DED028B8046B0EE00
:10365000408A0E46002700244046FDF703FC04463E
:1036600024B90420BDEC028BBDE8F08184ED0D8A05
:10367000B0EE480A6D21204600F026F905460DB14E
:103680002846EFE726B9C82000F054FF2846E9E7AE
:1036900000BF94ED410AB4EE480AF1EE10FA05D0ED
:1036A00038467F1C4FF6FF718842F2D34FF6FF7009
:1036B000874201D30320D5E72846D3E72DE9F0411F
:1036C0002DED028B8046B0EE408A0E460027002486
:1036D0004046FDF7C7FB044624B90420BDEC028B2D
:1036E000BDE8F08184ED0A8AB0EE480A61212046E7
:1036F00000F0EAF805460DB12846EFE726B9C820E4
:1037000000F018FF2846E9E700BF94ED3E0AB4EE4A
:10371000480AF1EE10FA05D038467F1C4FF6FF71CB
:103720008842F2D34FF6FF70874201D30320D5E7DA
:103730002846D3E72DE9F0412DED028B8046B0EE0F
:10374000408A0E46002700244046FDF78BFB0446C6
:1037500024B90420BDEC028BBDE8F08184ED0B8A16
:10376000B0EE480A6321204600F0AEF805460DB1E0
:103770002846EFE726B9C82000F0DCFE2846E9E736
:1037800000BF94ED3F0AB4EE480AF1EE10FA05D0FE
:1037900038467F1C4FF6FF718842F2D34FF6FF7018
:1037A000874201D30320D5E72846D3E72DE9F04728
:1037B00081460C4617464FF0000800252046FDF7CD
:1037C00051FB054615B10320BDE8F0874846FDF7DB
:1037D00049FB05460DB90420F6E72C7322463D212E
:1037E000284600F0F1F806460EB13046ECE727B95E
:1037F000C82000F09FFE3046E6E700BF2878A042D0
:1038000006D0404608F101084FF6FF718842F5D313
:103810004FF6FF70804501D30320D5E73046D3E74C
:103820002DE9F04104460D460027002184F8D01010
:103830009421204600F0E2F8064616B13046BDE875
:10384000F08125B9C82000F075FE3046F7E700BFCB
:1038500094F8D000012805D038467F1C4FF6FF7140
:103860008842F5D34FF6FF70874201D30320E6E785
:103870003046E4E72DE9F04104460E4617460025A0
:1038800000E06D1C2078A1683A464B6831469847A5
:1038900018B1A0684078A842F3D8A0684078A84240
:1038A00002D80220BDE8F0810020FBE7F8B506460B
:1038B0000C4615468DF800408DF8015002226946ED
:1038C0003046FFF7D7FFF8BD70B52DED028B82B003
:1038D00006460C46B0EE408A9FEDF90A28EE000A33
:1038E000BDEEC00A10EE100A05B28DF80440280A99
:1038F0008DF80500E8B28DF80600032201A93046D4
:10390000FFF7B8FF02B0BDEC028B70BD70B52DEDB6
:10391000028B82B006460D46B0EE408A092D01D0DA
:103920005A2D0CD19FEDE70AC8EE000A9FEDE60A7A
:1039300020EE800ABDEEC00A10EE104A23E0082DEA
:1039400001D0582D0CD196ED380AC8EE000A9FED33
:10395000DE0A20EE800ABDEEC00A10EE104A12E028
:103960007E2D08D19FEDD90A28EE000ABDEEC00ACF
:1039700010EE104A07E09FEDD40A28EE000ABDEED3
:10398000C00A10EE104A8DF80050200E8DF801008C
:10399000200C8DF80200200A8DF80300E0B28DF8AB
:1039A0000400052269463046FFF764FF02B0BDEC13
:1039B000028B70BD38B505460C460094012269465D
:1039C0002846FFF757FF38BD7CB504460D4616461E
:1039D0008DF8005060788DF80100A0788DF8020015
:1039E000E0788DF8030020798DF804008DF80560EB
:1039F000062269462046FFF73DFF7CBD38B50546E7
:103A00000C460094012269462846FFF733FF38BD73
:103A1000CA7A752A24D007DC6AB12B2A32D0552AFB
:103A20000CD0712A34D115E0792A1FD08B2A23D0EB
:103A3000B02A2DD108E00A7B82712AE00A7B80F847
:103A4000D4200123C37424E00A7B80F8D52001230D
:103A500003751EE00A7B80F8D6200123437518E029
:103A60000A7B80F8D7200123837512E00A7B80F857
:103A7000D8200123C3750CE00A7B80F8D9200123EC
:103A8000037606E00A7B80F8DA200123437600E023
:103A900000BF00BF704790F8081101F0010121B18B
:103AA00001224FF485710A5403E000224FF485711E
:103AB0000A5490F8081101F0020121B1012240F2EC
:103AC0000B110A5403E0002240F20B110A5490F843
:103AD000081101F0040121B101224FF486710A544A
:103AE00003E000224FF486710A5490F8081101F0A7
:103AF000080121B1012240F20D110A5403E0002215
:103B000040F20D110A5490F8081101F0100121B192
:103B100001224FF487710A5403E000224FF48771A9
:103B20000A5490F8081101F0200121B1012240F25D
:103B30000F110A5403E0002240F20F110A5490F8CA
:103B4000081101F0400121B101224FF488710A549B
:103B500003E000224FF488710A5490F8081101F034
:103B6000800121B1012240F211110A5403E0002228
:103B700040F211110A54B0F8081101F4807121B11A
:103B800001224FF489710A5403E000224FF4897135
:103B90000A54B0F8081101F4007121B1012240F279
:103BA00013110A5403E0002240F213110A54B0F832
:103BB000081101F4806121B101224FF48A710A5485
:103BC00003E000224FF48A710A54B0F8081101F49E
:103BD000784121B1012240F215110A5403E000227C
:103BE00040F215110A54704730B503460D46287B44
:103BF000000204B2687B0443E87A452808D100EE4D
:103C0000904AF8EEE00A9FED321A80EE810A07E052
:103C100000EE904AF8EEE00A9FED291A80EE810A44
:103C2000E87A6C285CD00EDC60283DD006DC4528A4
:103C300016D053281AD05F286BD12FE0622839D0D4
:103C4000642866D146E077281CD004DC6E284DD06D
:103C500073285ED110E07B281AD0FF2859D14BE0A1
:103C600083ED370A012183F83F1053E083ED380AD2
:103C7000012183F840104DE083ED390A012183F8DA
:103C8000381047E083ED3A0A012183F8391041E00A
:103C900083ED3B0A012183F83A103BE083ED3C0AB7
:103CA000012183F8411035E083ED3D0A012183F8BD
:103CB00042102FE083ED3E0A012183F83B1029E0FA
:103CC000000080430080BB450000804B3373964268
:103CD0000000804483ED3F0A012183F83C1019E085
:103CE00083ED400A012183F83D1013E083ED410A82
:103CF000012183F83E100DE0FCEEC00A10EE900AA0
:103D0000A3F808011846FFF7C6FE012183F8431007
:103D100000E000BF00BF30BD10B50B7B1A064B7B27
:103D200042EA03428B7B42EA0322CB7B1A43CB7AE3
:103D3000052B02D0CB7A5B2B0CD100EE902AB8EE8B
:103D4000E01A5FED1F1AC1EE210A1FED221A20EEC4
:103D5000810A26E0CB7A042B02D0CB7A592B0CD1E6
:103D600000EE902AB8EEE01A5FED291AC1EE210AA2
:103D700090ED381A20EE810A13E0CB7A7F2B08D120
:103D800000EE902AF8EEE00A1FED301A80EE810A6C
:103D900007E000EE902AF8EEE00A1FED351A80EEFB
:103DA000810ACB7A242B73D01DDC192B6AD010DC4E
:103DB000152B4FD006DC042B3AD0052B3ED0062B1A
:103DC00067D141E0162B4BD0172B4FD0182BF7D1D2
:103DD00052E01A3B0A2B5CD2DFE803F05C62636DB1
:103DE0007BF5F5F58A945B2B6FD010DC372B6DD00B
:103DF00006DC342B6BD0352B6AD0362BE0D199E022
:103E0000382B70D0392B6FD0592BD9D1AAE0862B03
:103E10006BD006DC7D2B69D07F2B68D0852BCFD172
:103E2000ADE08A2B78D0922B77D0932BC8D1BEE00F
:103E300080ED460A012480F8B440C5E080ED470AD1
:103E4000012480F8B540BFE080ED480A012480F8E5
:103E5000B640B9E080ED490A012480F8B740B3E0EC
:103E600080ED4A0A012480F8B840ADE080ED4B0AAD
:103E7000012480F8B940A7E080ED4C0A012480F8C5
:103E8000BA40A1E080ED4D0A012480F8BB409BE0E0
:103E900044E098E080ED4E0A012480F8BC4093E0B5
:103EA00092E0DFEDF70A60EE200AC0ED4F0A012430
:103EB00080F8BD4088E0DFEDF20A60EE200AC0ED38
:103EC000500A012480F8BE407EE051E038E02FE047
:103ED0002FE0DFEDEB0A60EE200AC0ED510A01246D
:103EE00080F8BF4070E031E036E04EE046E064E04C
:103EF000DFEDE30A60EE200AC0ED520A012480F8EB
:103F0000C04061E0DFEDDE0A60EE200AC0ED530A3A
:103F1000012480F8C14057E03DE042E0DFEDD80ADF
:103F200060EE200AC0ED540A012480F8C2404BE044
:103F30004AE049E080ED550A012480F8C34043E09F
:103F400080ED560A012480F8C4403DE080ED570A18
:103F5000012480F8C54037E080ED580A012480F83C
:103F6000C64031E080ED5B0A012480F8C9402BE0B7
:103F700080ED5C0A012480F8CA4025E024E080ED51
:103F8000590A012480F8C7401EE080ED5A0A012436
:103F900080F8C84018E080ED5E0A012480F8CC402B
:103FA00012E080ED5F0A012480F8CD400CE080ED46
:103FB000600A012480F8CE4006E080ED610A012409
:103FC00080F8CF4000E000BF00BF10BD10B5024632
:103FD0000B7B18064B7B40EA03408B7B40EA0320B7
:103FE00000EE100AB8EEC00A5FEDC90A80EE201A92
:103FF00082ED481ACB7B18060B7C40EA034000EEAA
:10400000100AF8EEC00A9FED9F1A80EE810A5FED5C
:10401000D30A20EE200A82ED470A4B7C18068B7CDF
:1040200040EA034000EE100AF8EEC00A9FED951A30
:1040300080EE810AD2ED380A20EE200A82ED460A8F
:10404000012482F8D04010BD0A7B42704B7B837004
:104050008B7BC370CB7B0371012380F8D130704719
:1040600010B503460C46207B01286ED10020587104
:10407000E07A33286AD01BDCA0F107002C286ED22E
:10408000DFE800F05393989D6D6DF2A2A9AEB6BB28
:10409000C1C66D6D6D6D6D6D6D6D6D6DC7CCD16D86
:1040A0006D6DD6DBE06D6D696D6D6DE5E6E7ECF38A
:1040B000782846D01CDC6B286BD00CDC5A2872D0D8
:1040C00004DC3D2870D0582849D1DDE0612856D065
:1040D0006328F9D158E0722842D004DC6D285DD005
:1040E0007028F1D125E0742827D07628ECD13CE067
:1040F00088286ED00CDC83286CD004DC7A2839D078
:104100007E28E1D1E8E084286FD08728DCD1CFE099
:1041100090286BD004DC892869D08C28D4D116E093
:1041200091286FD0FE28CFD1DBE0587B83F8D400F4
:10413000F5E0987B83F8D600F1E0D87B83F8D700D0
:10414000EDE0187C83F8D800E9E0E9E092E0587CE3
:1041500083F8D900E3E0987C83F8DA00DFE0DDE063
:1041600093ED070A83ED390AD9E093ED080A83ED50
:104170003A0AD4E093ED090A83ED3B0ACFE093EDD0
:104180000A0A83ED3E0ACAE093ED0B0A83ED3F0A6B
:10419000C5E093ED0C0A83ED400AC0E093ED0D0AF3
:1041A00083ED410ABBE074E0B5E093ED110A83EDC5
:1041B000460AB4E093ED120A83ED470AAFE093EDAF
:1041C000130A83ED480AAAE093ED140A83ED490A25
:1041D000A5E08DE062E093ED150A83ED4A0A9EE0CA
:1041E00093ED160A83ED4B0A99E05CE06AE064E027
:1041F00093ED170A83ED4C0A91E093ED180A83EDD5
:104200004D0A8CE063E093ED190A83ED4E0A86E0D7
:1042100085E093ED1A0A83ED4F0A80E093ED1B0AC7
:1042200083ED500A7BE093ED1C0A83ED510A76E0A2
:1042300093ED1D0A83ED520A71E093ED1E0A83EDA2
:10424000530A6CE093ED1F0A83ED540A67E066E0C1
:1042500065E093ED200A83ED550A60E093ED210AB5
:1042600083ED560A5BE000E052E093ED220A83ED15
:10427000570A54E093ED230A83ED580A4FE00000FB
:10428000000070440000804E93ED260A83ED5B0A27
:1042900045E093ED270A83ED5C0A40E093ED240AA4
:1042A00083ED590A3BE093ED250A83ED5A0A36E087
:1042B00093ED280A83ED5D0A31E093ED290A83ED41
:1042C0005E0A2CE093ED2A0A83ED5F0A27E093ED66
:1042D0002B0A83ED600A22E093ED2C0A83ED610A3C
:1042E0001DE00020A3F808011846FFF7D4FB16E0F4
:1042F0009FED800A83ED480A9FED7F0A83ED590AFE
:104300009FED7E0A83ED5A0A012183F8D21006E060
:104310000120587103E0187B187000BF00BF00BF78
:1043200010BD70B504462078FCF79CFD054605B924
:1043300070BD0120E871E07A53286ED03BDC1D2867
:104340006CD018DC16286AD00DDC052868D005DC96
:1043500080B3022872D0042871D195E006286FD06E
:104360001528F9D193E01738062868D2DFE800F065
:1043700091929394959635286FD00EDC24286DD0B9
:1043800006DC1E286BD022286AD02328E4D189E0DD
:104390002B285DD03428DFD186E0382871D004DCAA
:1043A00036286FD03728D7D181E039286BD04528FF
:1043B000D2D156E045E0792848D01CDC642858D09A
:1043C0000EDC5F2852D006DC55283BD0592871D02E
:1043D0005B2834D16FE0602849D062282FD147E0B4
:1043E0006C380C287DD2DFE800F0457C467C7C2FC1
:1043F0007C3E7C307C3F8B2829D012DC85285CD029
:1044000006DC7B2831D07D2856D07F2869D159E041
:10441000862853D08A2864D151E023E03FE037E07A
:1044200033E0942853D004DC922849D0932858D103
:1044300047E0B02807D0FF2853D11DE04CE050E002
:1044400024E000BF00BF00BF00BF00BF00BF00BF2F
:1044500021462846FFF7DCFA48E026E023E01FE08B
:104460001FE000BF00BF00BF00BF00BF00BF00BF14
:1044700000BF00BF00BF00BF21462846FFF7B4FBC6
:1044800034E015E012E014E000BF00BF00BF00BF41
:1044900000BF00BF00BF00BF00BF00BF00BF00BF24
:1044A00000BF00BF00BF00BF00BF00BF00BF00BF14
:1044B00000BF00BF00BF00BF00BF00BF00BF00BF04
:1044C00000BF00BF21462846FFF726FC0EE021462C
:1044D0002846FFF77BFD09E021462846FFF7B4FD9B
:1044E00004E021462846FFF7BBFD00BF00BF00BF28
:1044F0001EE70000000000000000FE420000FEC2B7
:1045000010B504466FF0040000F08EF9E11704EBDB
:104510005171C1F3C701394A11701046007800EBA0
:104520004001C1EBC0104FF6FF7101EAC0003449F1
:10453000088010BD0146314A12784A434FF0E0230B
:104540005A6100229A611A46126942F001021A6108
:1045500000BF4FF0E022106900F001021AB100F430
:104560008032002AF5D04FF0E022126922F00102D9
:104570004FF0E0231A6100229A6170470146204AF9
:1045800012884A434FF0E0235A6100229A611A468A
:10459000126942F001021A6100BF4FF0E022106977
:1045A00000F001021AB100F48032002AF5D04FF079
:1045B000E022126922F001024FF0E0231A6100228A
:1045C0009A61704770B504464FF4077094FBF0F0A1
:1045D000C6B24FF4077094FBF0F100FB114085B2B6
:1045E00005E04FF40770FFF7C9FF701EC6B2002E3A
:1045F000F7D115B12846FFF7C1FF70BD3400002088
:104600003600002000BF704700BF4B4A128802F0FE
:104610004002002AF9D0C2B2474B9A80704710B5C9
:1046200088B004460121084600F043FC0121102017
:1046300000F097FC07220921404800F024FA0722E5
:104640000A213E4800F01FFA4FF4C0600690022095
:104650008DF81C008DF81D0000208DF81E00012033
:104660008DF81F0006A9354800F082F90294002059
:10467000ADF80C00ADF80E00ADF81000ADF8140068
:104680000C20ADF8120002A92B4800F0CCFD25202B
:104690008DF8040003208DF805008DF80600012038
:1046A0008DF8070001A800F072F8012240F22551B0
:1046B000214800F0F6FE40211F4800F024FF0121B0
:1046C0001D4800F038FE08B010BD10B540F225516D
:1046D000194800F021FF30B11948007818B9164880
:1046E00080881749087010BD00BF1349098801F080
:1046F00040010029F9D010498880704700B5024672
:104700000B4603E01078FFF7EFFF521C181EA3F1D1
:1047100001018BB2F6D100BD10B52021064800F092
:10472000E5FE38B12021044800F0EDFE0248808803
:10473000C0B210BD0020FCE70010014000000240A4
:10474000000000200948804709480047FEE7FEE7CF
:10475000FEE7FEE7FEE7FEE7FEE7FEE7FEE7FEE731
:1047600004480549054A064B70470000B906000891
:10477000AD010008C0030020C0090020C0050020D2
:10478000C005002032490143324A1160704770B5BC
:10479000002100230F22C4781CB32E4C246804F49B
:1047A000E064C4F5E064C4F30721C1F10404E3B29A
:1047B0000A4144789C40E1B28478144021430C07BC
:1047C000210E254C05786155047804F01F0501245D
:1047D000AC4005786D11AD0005F1E025C5F800414C
:1047E00009E0047804F01F050124AC401B4D067855
:1047F000761145F8264070BD194A0A400243154B10
:104800001B1F1A60704739B1124A121D1268024309
:10481000104B1B1D1A6006E00E4A121D12688243DF
:104820000C4B1B1D1A607047042808D14FF0E02183
:10483000096941F004014FF0E022116107E04FF0F7
:10484000E021096921F004014FF0E0221161704775
:104850000000FA050CED00E000E400E080E100E07B
:1048600080FFFF1F10B504469848844208D10121FB
:10487000084600F087FB0021012000F083FB76E072
:104880009348844208D10121022000F07BFB0021E3
:10489000022000F077FB6AE08E48844208D10121B3
:1048A000042000F06FFB0021042000F06BFB5EE0B1
:1048B0008948844208D10121082000F063FB0021CF
:1048C000082000F05FFB52E08448844208D10121B7
:1048D000102000F057FB0021102000F053FB46E0B1
:1048E0007F48844208D10121202000F04BFB0021A9
:1048F000202000F047FB3AE07A48844208D10121A9
:10490000402000F03FFB0021402000F03BFB2EE068
:104910007548844208D10121802000F033FB00213A
:10492000802000F02FFB22E07048844208D1012152
:10493000801500F027FB0021A01500F023FB16E0F6
:104940006B48844208D10121401500F01BFB002177
:10495000601500F017FB0AE06648844207D1012188
:10496000001500F00FFB0021201500F00BFB10BD1F
:10497000F0B50A4600210023002400BF3DE00125D8
:1049800005FA01F3156805EA03049C4234D1056871
:104990004F000326BE40B543056015794E00B54073
:1049A0000668354305601579012D02D01579022D71
:1049B00016D185684F000326BE40B5438560557902
:1049C0004E00B540866835438560456801268E40B7
:1049D000B5434560456896798E40B6B2354345602B
:1049E000C5684F000326BE40B543C560D5794E006B
:1049F000B540C6683543C560491C1029BFD3F0BD1A
:104A00004FF6FF7101600021017141718171C17127
:104A1000704708B54FF480320092009A0A43009222
:104A2000009AC261C161009AC261C2690092C26902
:104A3000009208BD0246002013690B400BB1012013
:104A400000E0002070470146086980B270470246C6
:104A5000002053690B400BB1012000E0002070479B
:104A60000146486980B270470183704741837047AF
:104A70000AB1018300E04183704741617047426998
:104A80004A4042617047F0B5002300244D07ED0E07
:104A900002FA05F3CE1000F1200555F826504E0716
:104AA000F70E0F26BE40B543CF1000F1200646F8A2
:104AB0002750CE1000F1200555F8265045EA030492
:104AC000CE1000F1200545F82640F0BD0000024060
:104AD0000004024000080240000C024000100240A6
:104AE0000014024000180240001C02400020024056
:104AF0000024024000280240F648006840F001000F
:104B0000F44908600020F34908310860F148006862
:104B1000F1490840EF490860F048091D0860F04875
:104B2000EC4984310860ED481038091D0860E948F7
:104B3000006820F48020E74908600020E5490C3136
:104B40000860E4498C31086070470021E14A921CFA
:104B5000117011460870704710B5014600220023FD
:104B600000204A11012A02D1DA4C236808E0022A07
:104B700003D1D84C7034236802E0D64C74342368D7
:104B800001F01F02012494401C400CB1012000E000
:104B9000002010BD38B5002000900024002500BF83
:104BA0003120FFF7D9FF05460098401C009000987F
:104BB000B0F5A04F01D0002DF2D03120FFF7CCFF8F
:104BC00008B1012400E00024204638BD0146002041
:104BD000C04A106820F0F80040EAC1001060704739
:104BE000C049086070470021BA4A703211701170D4
:104BF000012802D004280AD104E00121B54A70320C
:104C0000117005E00521B34A7032117000E000BF59
:104C100000BF7047B4490860704770B5049C41EA12
:104C200082150126C6EB530645EA0645054345EACB
:104C30000465A84E361D356070BDAA4908667047E8
:104C400010B5830143EA016343EA0273A14C843443
:104C5000236010BDA3498866704710B5830143EAFD
:104C6000016343EA02739B4C8834236010BD9D4965
:104C7000086770479B49C864704702460020954BFF
:104C80000833186820F0EC6042EA01031843914BA6
:104C9000083318607047024600208E4B08331868AE
:104CA00020F0784042EA010318438A4B0833186029
:104CB000704701460020874A0832106820F0030040
:104CC00008431060704783480830006800F00C000B
:104CD0007047014600207F4A0832106820F0F0003B
:104CE000084310607047014600207A4A0832106875
:104CF00020F4E05008431060704701460020754AD8
:104D00000832106820F4604040EAC100106070472B
:104D1000F0B50021002200240225002602236D4F59
:104D200008373F6807F00C0121B1042905D0082994
:104D300037D105E06D4F076036E06D4F076033E017
:104D4000644F3F1D3F68C7F38056624F3F1D3F6869
:104D500007F03F036EB1664FB7FBF3F7DFF874C19E
:104D60000CF1040CDCF800C0CCF3881C07FB0CF43D
:104D70000CE05E4FB7FBF3F7DFF858C10CF1040C01
:104D8000DCF800C0CCF3881C07FB0CF4514F3F1D2E
:104D90003F68C7F301477F1C7D00B4FBF5F7076050
:104DA00002E0524F076000BF00BF4A4F08373F681C
:104DB00007F0F00109094F4F7A5C0768D740476058
:104DC000444F08373F6807F4E051890A494F7A5C3D
:104DD0004768D74087603F4F08373F6807F4604116
:104DE000490B444F7A5C4768D740C760F0BD00214B
:104DF00000F44072B2F5407F0AD1364A0832116899
:104E000021F4F8113C4A02401143324A0832116041
:104E1000304A70321268C0F30B031A432D4B7033C3
:104E20001A60704730494439086070472E4940394C
:104E30000860704731490860704701460020254AE4
:104E40008C32106820F01F004A1E1043214A8C3219
:104E500010607047014600201E4A8C32106820F412
:104E6000F8504A1E40EA02201A4A8C3210607047FD
:104E700001460020174A8C32106820F44010084385
:104E80001060704701460020124A8C32106820F4EE
:104E90004000084310607047014600200D4A8C32E4
:104EA000106820F4403008431060704714490860CF
:104EB000704739B1074A303212680243054B30332C
:104EC0001A6006E0034A303212688243014B3033E5
:104ED0001A60704700380240FFFFF6EA10300024E5
:104EE0000030002000004742800E47420024F400BA
:104EF00000127A003C000020FFFCFF0F5C014742DB
:104F0000E011474229B1934A12680243914B1A605B
:104F100004E0904A126882438E4B1A60704739B1A0
:104F20008C4A121D126802438A4B1B1D1A6006E050
:104F3000884A121D12688243864B1B1D1A607047F7
:104F400039B1844A0C3212680243824B0C331A6026
:104F500006E0804A0C32126882437E4B0C331A60A2
:104F6000704739B17B4A103212680243794B1033D3
:104F70001A6006E0774A103212688243754B10338C
:104F80001A60704739B1734A243A12680243714B70
:104F9000243B1A6006E06F4A243A126882436D4B44
:104FA000243B1A60704739B16A4A203A12680243BA
:104FB000684B203B1A6006E0664A203A126882433A
:104FC000644B203B1A60704739B1624A1C3A126840
:104FD0000243604B1C3B1A6006E05E4A1C3A1268B2
:104FE00082435C4B1C3B1A60704739B1594A143AF2
:104FF00012680243574B143B1A6006E0554A143AB4
:1050000012688243534B143B1A60704739B1514ABE
:10501000103A126802434F4B103B1A6006E04D4AAB
:10502000103A126882434B4B103B1A60704739B1FB
:10503000484A1C3212680243464B1C331A6006E091
:10504000444A1C3212688243424B1C331A60704738
:1050500039B1404A2032126802433E4B20331A6075
:1050600006E03C4A2032126882433A4B20331A60F1
:10507000704739B1374A243212680243354B243322
:105080001A6006E0334A243212688243314B2433DB
:105090001A60704739B12F4A2C32126802432D4BE7
:1050A0002C331A6006E02B4A2C3212688243294BBB
:1050B0002C331A60704739B1264A303212680243E5
:1050C000244B30331A6006E0224A303212688243A1
:1050D000204B30331A607047012808D11D493C31FC
:1050E000096841F008011B4A3C32116007E0194988
:1050F0003C31096821F00801164A3C3211607047C2
:1051000039B1144A273A12780243124B273B1A70DE
:1051100006E0104A273A127882430E4B273B1A705A
:1051200070470C484030006840F0807009494031B9
:105130000860704701460020064A283A12680A4073
:105140000AB1012000E000207047024926390870AA
:10515000704700003438024010B50446FA488442D3
:1051600008D101211020FFF751FF00211020FFF787
:105170004DFF57E0F548844209D101214804FFF76B
:1051800034FF00214FF40030FFF72FFF4AE0F048D2
:10519000844209D101218804FFF727FF00214FF441
:1051A0008020FFF722FF3DE0EA48844209D1012137
:1051B000C804FFF71AFF00214FF40020FFF715FF86
:1051C00030E0E548844209D101210805FFF70DFFD1
:1051D00000214FF48010FFF708FF23E0DF488442EE
:1051E00008D101212020FFF711FF00212020FFF727
:1051F0000DFF17E0DA48844209D101218807FFF743
:10520000F4FE00214FF08040FFF7EFFE0AE0D548A2
:10521000844207D101214005FFF7E7FE0021600528
:10522000FFF7E3FE10BD2DE9FF4705460E460024BB
:10523000A14600BFA046B08900B100BF2C8A24F46B
:105240004054F08804432C82AC8941F20C608443C2
:10525000B08831890843718908430443AC81AC8A22
:1052600024F44074B0890443AC826846FFF750FDD3
:10527000B548854202D0B948854202D1DDF80C908C
:1052800001E0DDF80890A88900F4004040B109EB86
:10529000C90000EB091031684900B0FBF1F707E0E5
:1052A00009EBC90000EB091031688900B0FBF1F788
:1052B0006420B7FBF0F004012009642101FB1078A1
:1052C000A88900F4004040B1322000EBC800B0FBD8
:1052D000F1F000F00700044308E0322000EB081072
:1052E0006421B0FBF1F000F00F0004432C81BDE815
:1052F000FF874FF41651016000218180C180018138
:105300000C21418100218181704710B502460020A7
:10531000108A20F470600B884C8823438C882343C8
:10532000CC8823431843108210BD002101804180A6
:105330008180C180704721B1828942F4005282810C
:1053400004E082894DF6FF731A4082817047028B18
:1053500002F47F420283028B0A430283704721B129
:10536000828942F40042828103E08289C2F30E0204
:105370008281704721B1828A42F40062828204E015
:10538000828A4FF2FF731A4082827047C1F308028B
:105390008280704701468888C0F308007047028AFF
:1053A0004FF6F0731A400282028A0A430282704763
:1053B00021B1828942F00202828104E082894FF6A3
:1053C000FD731A408281704782894FF2FF731A4041
:1053D000828182890A4382817047028A4FF6DF7395
:1053E0001A400282028A0A430282704721B1028A6D
:1053F00042F48042028204E0028A4BF6FF731A40B4
:1054000002827047818941F001018181704721B199
:10541000828A42F00802828204E0828A4FF6F773A1
:105420001A4082827047028BD2B20283028B42EA18
:1054300001220283704721B1828A42F020028282D7
:1054400004E0828A4FF6DF731A408282704721B1EE
:10545000828A42F01002828204E0828A4FF6EF7361
:105460001A4082827047828A4FF6FB731A4082820A
:10547000828A0A438282704721B1828A42F0020204
:10548000828204E0828A4FF6FD731A40828270475E
:105490001AB1838A0B43838202E0838A8B4383821F
:1054A0007047F0B50346002400260025002040F692
:1054B0006A17B94200D100BF1846C1F3421401F087
:1054C0001F06012707FA06F5012C01D10C3004E074
:1054D000022C01D1103000E014301AB107682F43BC
:1054E000076002E00768AF430760F0BD0246002096
:1054F000B1F5007F00D100BF13880B400BB1012034
:1055000000E00020704701F40072B2F5007F00D186
:1055100000BFCA430280704770B5024600240023D2
:105520000025002040F66A16B14200D100BFC1F349
:10553000421501F01F03012606FA03F3012D13D1D2
:105540009689334017E000000010014000440040FD
:1055500000480040004C0040005000400014014052
:1055600000780040007C0040022D02D1168A3340B2
:1055700001E0968A33400C12012606FA04F41688DC
:10558000344013B10CB1012000E0002070BD10B513
:105590000022002340F66A14A14200D100BF0A1283
:1055A00001249440A3B2DC43048010BD10B504462E
:1055B000FE48844209D101214806FFF716FD00216B
:1055C0004FF00070FFF711FD08E001218806FFF79A
:1055D0000CFD00214FF08060FFF707FD10BD30B5D6
:1055E000024600200023146824F0020414601468AA
:1055F00044F00104146000E05B1C546804F00104F2
:105600001CB94FF6FF74A342F6D1546804F00104AC
:105610000CB900206CE08C79012C04D1146844F0A2
:105620008004146003E0146824F080041460CC79D2
:10563000012C04D1146844F04004146003E01468A1
:1056400024F0400414600C7A012C04D1146844F056
:105650002004146003E0146824F0200414604C7AE1
:10566000012C04D1146844F01004146003E01468A1
:1056700024F0100414608C7A012C04D1146844F0D6
:105680000804146003E0146824F008041460CC7A61
:10569000012C04D1146844F00404146003E014687D
:1056A00024F0040414608C78A407CD7844EA0564DF
:1056B0000D7944EA05444D7944EA05540D886D1E80
:1056C0002C43D461146824F001041460002300E02A
:1056D0005B1C546804F001041CB14FF6FF74A34234
:1056E000F6D1546804F001040CB1002000E0012060
:1056F00030BD10B50021837A012202FA03F1AC4AD1
:10570000126842F00102AA4B1A60A94A1C321268C0
:105710008A43A74B1C331A60027BCAB9A44A0C32D5
:1057200012688A43A24B0C331A604288C38842EA4B
:1057300003439F4A4032847A42F834300288838897
:1057400042EA03439A4A4032847A02EBC40253602D
:10575000027B012A19D1964A0C3212680A43944BF3
:105760000C331A604288038842EA0343904A40326D
:10577000847A42F83430C288838842EA03438C4AF0
:105780004032847A02EBC4025360C27A3AB9884A42
:10579000121D12688A43864B1B1D1A6006E0844A5C
:1057A000121D12680A43824B1B1D1A60028932B90E
:1057B0007F4A143212688A437D4B14331A6002897F
:1057C000012A06D17A4A143212680A43784B1433FC
:1057D0001A60427B012A06D1754A1C3212680A43BC
:1057E000734B1C331A60724A126822F00102704B2C
:1057F0001A6010BD00218171C17101724172817204
:10580000C1728170C17003210171022141710121B6
:10581000018070476649096841F00101644A1160DE
:105820001146096843F60E729143614A11601146B0
:10583000096841EA002111601146096821F001015F
:105840001160704721B1026842F48032026003E0C7
:10585000026822F4803202607047E1B1026842F0CF
:10586000800202604FF4C272125842F480734FF407
:10587000C27213504FF4CA72125842F480734FF43C
:10588000CA7213504FF4D272125842F480734FF41C
:10589000D27213501BE0026822F0800202604FF4C3
:1058A000C272125822F480734FF4C27213504FF434
:1058B000CA72125822F480734FF4CA7213504FF414
:1058C000D272125822F480734FF4D2721350704780
:1058D00010B502460020936803F08063B3F1806F37
:1058E00000D110E0936803F00063B3F1006F01D1C1
:1058F000012008E0936803F08053B3F1805F01D189
:10590000022000E00420042879D002F5C07303EBE4
:1059100000131B6803F0010402F5C07303EB0013CE
:105920001C600B7A7BB94B7A0C8843EA445302F52E
:10593000C07404EB00142468234302F5C07404EB24
:105940000014236010E00B7A4C6843EAC4034C7ADD
:10595000234302F5C07404EB00142468234302F5CA
:10596000C07404EB001423608B7A03F00F038B7276
:1059700002F5C07303EB00135B6823F00F0402F51C
:10598000C07303EB00135C6002F5C07303EB0013FC
:105990005B688C7A234302F5C07404EB00146360E7
:1059A0008B7B1C064B7B44EA034403E0006400400D
:1059B000006600400B7B44EA0323CC7A234302F5C4
:1059C000C07404EB0014A3608B7C1C064B7C44EA7F
:1059D00003440B7C44EA0323CC7B234302F5C074CD
:1059E00004EB0014E36002F5C07303EB00131B68C3
:1059F00043F0010402F5C07303EB00131C6010BDFB
:105A000010B50246002321B1012907D002290FD188
:105A100009E09068F94C00EA04030BE09068F84C48
:105A200000EA040306E09068F64C00EA040301E093
:105A3000002300BF00BFF44C181BA34216D007DCA4
:105A400083B16FF08060184470B1022818D111E062
:105A5000B0F5007F10D0ED4C204448B1B0F5003FC8
:105A60000ED10BE002230DE000230BE0002309E040
:105A7000002307E0012305E0012303E0012301E007
:105A8000002300BF00BFD8B210BD21B1012907D04B
:105A900002290FD109E0826842F0800282600AE0A8
:105AA000826842F40042826005E0826842F40002AB
:105AB000826000E000BF00BF704710B500F5D873EA
:105AC00003EB01131B6803F004031372137A53B939
:105AD00000F5D87303EB01131B6840F2FF7404EA6E
